:0400000007EF00F016
:0A00080004821EED08F038EF08F046
:1010000000000F0EC16E000E926E000E896E946885
:10101000000E8B6E9568000E8C6E000E966E000EA4
:101020008D6ED09E000EF26EF28EF2868150016EB1
:10103000026A036A1AEF08F007EF00F00600F2A058
:1010400024EF08F026EF08F036EF08F08150016E2B
:10105000026A036AF290825083248D6ED8A033EF27
:1010600008F035EF08F036EF08F08980049211009F
:0A10700004900492000101EF08F063
:020000040030CA
:08000000FF06191EF38381FFC6
:00000001FF
