:10000000006B016B026B036B046B056B066B0A6B79
:10001000076BC50E086F936A946A956A9668816843
:100020008B688C681DEC00F0816A8B6A8C6A57ECD7
:1000300000F0C6EC00F017EF00F0FA0E026F260E8B
:10004000016F00690007FEE1013F21EF00F0023F70
:100050001FEF00F01200010E031701E005D084A08D
:100060000FD0010E036F0CD084B00AD0000E036FC6
:10007000010E041703E0000E046F02D0010E046F9E
:100080001200010E051701E005D084A20FD0010E69
:10009000056F0CD084B20AD0000E056F010E061752
:1000A00003E0000E066F02D0010E066F12002BEC6B
:1000B00000F041EC00F01200E86A815C18E0010EEB
:1000C000815C17E0030E815C16E0070E815C15E091
:1000D0000F0E815C14E01F0E815C13E03F0E815C0B
:1000E00012E07F0E815C11E0FF0E815C10E08180E8
:1000F00012008182120081841200818612008188A0
:100100001200818A1200818C1200818E1200816A95
:100110001200E86A825C18E0800E825C17E0C00E74
:10012000825C16E0E00E825C15E0F00E825C14E06A
:10013000F80E825C13E0FC0E825C12E0FE0E825C24
:1001400011E0FF0E825C10E0828E1200828C1200A1
:10015000828A120082881200828612008284120033
:100160008282120082801200826A1200010E04173D
:1001700003E089EC00F01200826A1200010E0617FB
:1001800003E05CEC00F01200816A1200073F1200ED
:10019000083F12008370B6EC00F0BEEC00F0C60E13
:0401A000086F1200D2
:020000040001F9
:04FFFC0000EF00F022
:020000040030CA
:0600010006191EF38381C5
:06000800FFC0FFE0FF4015
:00000001FF
